S00D0000536C6176652E737265631C
S11300000C942A000C9447000C9447000C9447006D
S11300100C9408060C9447000C9447000C94470079
S11300200C9447000C9447000C94B1050C944700C1
S11300300C9447000C9447000C9447000C94470020
S11300400C9447000C9447000C9447000C94470010
S11300500C94470011241FBECFE5D8E0DEBFCDBF0E
S113006010E0A0E6B0E0EAE7F3E102C005900D92EB
S1130070AE36B107D9F710E0AEE6B0E001C01D928C
S1130080A237B107E1F70E94C7030C94BB090C9493
S113009000003E9A3F9A379A329A319A30980895DE
S11300A0369A3699FECF84B190E045B1342F20E0E2
S11300B0822B932B0895843409F471C0853448F459
S11300C0823499F1833408F04DC0813409F083C03F
S11300D00FC0823651F1833620F4813609F07BC09B
S11300E007C0833609F43EC0843609F074C057C093
S11300F0413069F42AB381E090E0AC0102C0440FBE
S1130100551F6A95E2F7BA01622B6ABB08952AB3B8
S113011081E090E0AC0102C0440F551F6A95E2F7FC
S1130120BA01609562236ABB0895413069F427B32C
S113013081E090E0AC0102C0440F551F6A95E2F7DC
S1130140BA01622B67BB089527B381E090E0AC014C
S113015002C0440F551F6A95E2F7BA016095622305
S113016067BB0895413069F424B381E090E0AC01A9
S113017002C0440F551F6A95E2F7BA01622B64BBB3
S1130180089524B381E090E0AC0102C0440F551FF0
S11301906A95E2F7BA016095622364BB0895413021
S11301A069F421B381E090E0AC0102C0440F551F13
S11301B06A95E2F7BA01622B61BB089521B381E02D
S11301C090E0AC0102C0440F551F6A95E2F7BA01F2
S11301D06095622361BB0895843409F471C0853449
S11301E048F4823499F1833408F04DC0813409F025
S11301F083C00FC0823651F1833620F4813609F072
S11302007BC007C0833609F43EC0843609F074C04D
S113021057C0413069F42BB381E090E0AC0102C0D7
S1130220440F551F6A95E2F7BA01622B6BBB089520
S11302302BB381E090E0AC0102C0440F551F6A95D6
S1130240E2F7BA01609562236BBB0895413069F40B
S113025028B381E090E0AC0102C0440F551F6A95B9
S1130260E2F7BA01622B68BB089528B381E090E0FD
S1130270AC0102C0440F551F6A95E2F7BA016095BC
S1130280622368BB0895413069F425B381E090E0AE
S1130290AC0102C0440F551F6A95E2F7BA01622B04
S11302A065BB089525B381E090E0AC0102C0440F22
S11302B0551F6A95E2F7BA016095622365BB0895FC
S11302C0413069F422B381E090E0AC0102C0440FF4
S11302D0551F6A95E2F7BA01622B62BB089522B3F7
S11302E081E090E0AC0102C0440F551F6A95E2F72B
S11302F0BA016095622362BB0895843409F43DC059
S1130300853440F48234F9F0833450F5813409F0B3
S113031040C00CC08236B9F0833618F48136C9F572
S113032005C08336E9F08436A1F527C02BB381E0FC
S113033090E0AC0102C0440F551F6A95E2F7BA0180
S113034062276BBB089528B381E090E0AC0102C042
S1130350440F551F6A95E2F7BA01622768BB0895F6
S113036025B381E090E0AC0102C0440F551F6A95AB
S1130370E2F7BA01622765BB089522B381E090E0F9
S1130380AC0102C0440F551F6A95E2F7BA01622717
S113039062BB0895843409F451C0853440F4823436
S11303A039F18334C0F5813409F05AC00EC0823665
S11303B0F9F0833620F4813609F052C006C0833642
S11303C051F1843609F04CC039C029B381E090E082
S11303D0062E02C0880F991F0A94E2F730E08223A8
S11303E0932302C0969587956A95E2F7982F38C0B3
S11303F026B381E090E0062E02C0880F991F0A946C
S1130400E2F730E08223932302C0969587956A959C
S1130410E2F7982F25C023B381E090E0062E02C0B6
S1130420880F991F0A94E2F730E08223932302C0D5
S1130430969587956A95E2F7982F12C020B381E0CC
S113044090E0062E02C0880F991F0A94E2F730E06C
S11304508223932302C0969587956A95E2F7982F95
S1130460892F08958434D9F0853438F4823499F08E
S1130470833498F48134A1F40CC0823661F083365D
S113048018F4813669F405C0833639F0843641F4B2
S113049006C06ABB089567BB089564BB089561BB39
S11304A008958434D9F0853438F4823499F083344F
S11304B098F48134A1F40CC0823661F0833618F4C8
S11304C0813669F405C0833639F0843641F406C0B8
S11304D06BBB089568BB089565BB089562BB08951E
S11304E08434D9F0853438F4823499F0833498F420
S11304F08134A1F40CC0823661F0833618F481365D
S113050069F405C0833639F0843641F406C099B3E2
S113051005C096B303C093B301C090B3892F089567
S1130520843409F1853438F48234A9F08334B8F47E
S11305308134E1F40CC0823671F0833618F48136CC
S1130540A9F405C0833659F0843681F40CC08BB30A
S113055080958BBB089588B3809588BB089585B337
S1130560809585BB089582B3809582BB08958434B9
S113057009F471C0853448F4823499F1833408F065
S11305804DC0813409F083C00FC0823651F18336E7
S113059020F4813609F07BC007C0833609F43EC0DD
S11305A0843609F074C057C0413069F42BB381E03C
S11305B090E0AC0102C0440F551F6A95E2F7BA01FE
S11305C0622B6BBB08952BB381E090E0AC0102C0B9
S11305D0440F551F6A95E2F7BA01609562236BBB1D
S11305E00895413069F428B381E090E0AC0102C081
S11305F0440F551F6A95E2F7BA01622B68BB089550
S113060028B381E090E0AC0102C0440F551F6A9505
S1130610E2F7BA016095622368BB0895413069F43A
S113062025B381E090E0AC0102C0440F551F6A95E8
S1130630E2F7BA01622B65BB089525B381E090E02F
S1130640AC0102C0440F551F6A95E2F7BA016095E8
S1130650622365BB0895413069F422B381E090E0E0
S1130660AC0102C0440F551F6A95E2F7BA01622B30
S113067062BB089522B381E090E0AC0102C0440F54
S1130680551F6A95E2F7BA016095622362BB08952B
S11306900F931F93CF93C82F062F462F417060E00E
S11306A00E94EC0010E0A8014270507056954795E6
S11306B08C2F61E00E94EC00A801447050705695A4
S11306C04795569547958C2F62E00E94EC00087080
S11306D01070A80156954795569547955695479598
S11306E08C2F63E00E94EC00CF911F910F9108952D
S11306F00F931F93CF93C82F062F462F417064E0AA
S11307000E94EC0010E0A801427050705695479585
S11307108C2F65E00E94EC00A8014470507056953F
S11307204795569547958C2F66E00E94EC0008701B
S11307301070A80156954795569547955695479537
S11307408C2F67E00E94EC00CF911F910F910895C8
S11307509FBB8EBB6DBBE29AE19AE199FECF0895EF
S11307609FBB8EBBE09A8DB3089541E00E945B006D
S1130770089541E00E94EC00089540E00E94EC00DE
S113078008950E947D0108950E94CA01089581E49C
S113079061E00E94B50381E462E00E94B50381E454
S11307A063E00E94B50381E464E00E94B50381E440
S11307B065E00E94B50381E466E00E94B5030E94EF
S11307C083060E9449000E94040780E30E94970662
S11307D08093650080E00E94970680936C0080916E
S11307E06500803319F08133E1F705C10E94B40636
S11307F081E461E00E94CA0180936B0081E462E0BD
S11308000E94CA0180936A0081E463E00E94CA01E5
S11308108093690081E464E00E94CA0180936800C7
S113082080916C00823061F1833018F48130B9F624
S113083006C0833009F447C0843089F667C081E478
S113084061E00E94CA0180936B000E94970680E3D6
S11308500E94970680936600813021F481E461E070
S11308600E94B90380916600882321F481E461E049
S11308700E94BD0380916600833009F0B0CFAACFF7
S113088081E462E00E94CA0180936B0080916A0057
S11308900E94970680E30E94970680936600813049
S11308A021F481E462E00E94B90380916600882308
S11308B021F481E462E00E94BD03809166008330EC
S11308C009F08DCF87CF81E463E00E94CA01809351
S11308D06B00809169000E94970680E30E9497064E
S11308E080936600813021F481E463E00E94B903BF
S11308F080916600882321F481E463E00E94BD03B3
S113090080916600833009F06ACF64CF80E00E9452
S1130910970680936600823021F1833009F440C049
S1130920813009F05CCF81E464E00E94CA018093C5
S113093068000E94970680E30E94970680936400F3
S1130940813029F481E464E00E94B903F4CF882360
S113095029F481E464E00E94BD03EDCF8330B1F259
S11309603ECF81E465E00E94CA01809367000E9443
S1130970970680E30E94970680936400813029F4EF
S113098081E465E00E94B903F4CF882329F481E46B
S113099065E00E94BD03EDCF833009F4B7CF1FCFCC
S11309A080E50E94970680936300813041F0813096
S11309B0B8F3823079F0833009F011CF16C080E6A5
S11309C00E949706682F8093620085E090E00E9461
S11309D0A803E6CF80E60E9497068093630080E335
S11309E00E94970680936000DBCF85E30E94970600
S11309F080936000D5CF0E94B4068FEF90E7A2E009
S1130A0081509040A040E1F700C0000081E461E023
S1130A100E94CA0180936B0081E462E00E94CA01D3
S1130A2080936A0081E463E00E94CA0180936900B4
S1130A3081E464E00E94CA018093680080916C00A4
S1130A40823031F1833020F4813009F0C8CE07C000
S1130A50833009F440C0843009F0C1CE5FC080E324
S1130A600E94970680936600813021F481E461E05E
S1130A700E94B90380916600882321F481E461E037
S1130A800E94BD0380916600833009F0A8CEA2CEF7
S1130A9081E462E00E94CA0180936B0080916A0045
S1130AA00E94970680E30E94970680936600813037
S1130AB021F481E462E00E94B903809166008823F6
S1130AC021F481E462E00E94BD03809166008330DA
S1130AD009F085CE7FCE81E463E00E94CA01809351
S1130AE06B00809169000E94970680E30E9497063C
S1130AF080936600813021F481E463E00E94B903AD
S1130B0080916600882321F481E463E00E94BD03A0
S1130B1080916600833009F062CE5CCE81E464E0AB
S1130B200E94CA0180936B00809168000E9497061E
S1130B3080E30E94970680936600813021F481E46B
S1130B4064E00E94B90380916600882321F481E463
S1130B5064E00E94BD0380916600833009F43ACEBC
S1130B603ECE1F920F920FB60F9211242F933F93F4
S1130B704F935F936F937F938F939F93AF93BF93A1
S1130B80EF93FF9380917000909171000196909380
S1130B9071008093700080917000909171002EE438
S1130BA08032920721F510927100109270008FEF3D
S1130BB099E6A8E181509040A040E1F700C0000010
S1130BC08FEF80936C0080936B0080936A00809316
S1130BD06900809368008093670080936600809327
S1130BE06500809364000E94C4060E94C703FF91BD
S1130BF0EF91BF91AF919F918F917F916F915F9191
S1130C004F913F912F910F900FBE0F901F90189509
S1130C101F920F920FB60F9211242F933F934F936D
S1130C205F936F937F938F939F93AF93BF93EF9350
S1130C30FF9380916E0090916F00019690936F00E6
S1130C4080936E0080916E0090916F008A309105C0
S1130C5089F510926F0010926E000E945000BC0142
S1130C6080E090E00E94A20820E030E040E85EE3EB
S1130C700E9458090E9476086093610087E090E022
S1130C800E94A8039091610080916200981770F00F
S1130C9080916000823029F481E466E00E94B90307
S1130CA009C081E466E00E94BD0304C081E466E0FB
S1130CB00E94BD03FF91EF91BF91AF919F918F91DE
S1130CC07F916F915F914F913F912F910F900FBE44
S1130CD00F901F90189582E464E041E00E945B004D
S1130CE082E465E041E00E945B0082E467E041E069
S1130CF00E945B006C9A689A6E9A82E464E041E018
S1130D000E94EC0008956E9A82E466E041E00E943D
S1130D105B000895CF93C82F82E464E040E00E9412
S1130D20EC00CFB9779BFECF8FB1CF9108958FB9E7
S1130D30779BFECF8FB10895CF93DF93EC01888129
S1130D40882379F021960E948A068FEF92E5A7E026
S1130D5081509040A040E1F700C0000089918823B1
S1130D6091F7DF91CF91089583B7886083BF83B7EC
S1130D70846083BF83B7816083BF8EE48CBF789423
S1130D8089B7826089BF089583B78B7F83BF83B798
S1130D908E7F83BF0895BB9A83B7886083BF80E446
S1130DA08CBF83B7846083BF83B7816083BF83B7FD
S1130DB0806183BF0895BB9A83B7806483BF83B780
S1130DC0886083BF80E48CBF83B7816083BF83B7AF
S1130DD0846083BF83B78F7E83BF83B7806283BF02
S1130DE00895BB9A83B7806483BF80E48CBF83B7C4
S1130DF0816083BF83B7846083BF83B78F7E83BFE3
S1130E0083B7806283BF089585B5886085BD85B545
S1130E10846085BD85B5816085BD85B5826085BDED
S1130E208EE483BD789489B7806889BF089585B5B9
S1130E308B7F85BD85B58E7F85BD85B58D7F85BD51
S1130E4008958D9A2FB522602FBD2EB528602EBD32
S1130E502EB520612EBD2FE13EE437BD26BD20E036
S1130E6030E04AE754E40E9458090E947608DC0105
S1130E70CB019BBD8ABD8EB581608EBD8FB5806868
S1130E808FBD0895CF92DF92EF92FF926B017C01A8
S1130E908D9A8FB582608FBD8EB588608EBD8EB5FC
S1130EA080618EBD8FE19EE497BD86BDC701B6010A
S1130EB020E030E0A9010E9454098823CCF0C70146
S1130EC0B60120E030E044EB52E40E940A08181610
S1130ED07CF0C701B60120E030E044E353E40E9413
S1130EE00E0820E030E040EC5FE30E94A6070EC04D
S1130EF0C701B60120E030E044E353E40E940E0849
S1130F0020E030E040EC5FE30E94A607382F292F51
S1130F10862F972FA32FB22FBC01CD0120E030E004
S1130F204AE754E40E9458090E947608DC01CB0188
S1130F309BBD8ABD8EB581608EBD8FB580688FBD27
S1130F40FF90EF90DF90CF9008955058BB27AA27C9
S1130F500ED070C161D130F066D120F031F49F3FE2
S1130F6011F41EF456C10EF4E095E7FB4CC1E92FD1
S1130F7072D180F3BA17620773078407950718F0D4
S1130F8071F49EF58AC10EF4E0950B2EBA2FA02DB4
S1130F900B01B90190010C01CA01A0011124FF2722
S1130FA0591B99F0593F50F4503E68F11A16F0401D
S1130FB0A22F232F342F4427585FF3CF469537951C
S1130FC02795A795F0405395C9F77EF41F16BA0BE1
S1130FD0620B730B840BBAF09150A1F0FF0FBB1F8F
S1130FE0661F771F881FC2F70EC0BA0F621F731FD8
S1130FF0841F48F4879577956795B795F7959E3F35
S113100008F0B3CF9395880F08F09927EE0F9795C2
S113101087950895D4D008F481E008950CD00AC1CE
S113102002D140F0F9D030F021F45F3F19F0EBC069
S1131030511134C1EEC00FD198F39923C9F355234C
S1131040B1F3951B550BBB27AA27621773078407B7
S113105038F09F5F5F4F220F331F441FAA1FA9F36D
S113106033D00E2E3AF0E0E830D091505040E6955F
S1131070001CCAF729D0FE2F27D0660F771F881FC0
S1131080BB1F261737074807AB07B0E809F0BB0BAF
S1131090802DBF01FF2793585F4F2AF09E3F5105D3
S11310A068F0B1C0FBC05F3FECF3983EDCF386957B
S11310B077956795B795F7959F5FC9F7880F911D49
S11310C09695879597F90895E1E0660F771F881F35
S11310D0BB1F621773078407BA0720F0621B730BE8
S11310E0840BBA0BEE1F88F7E0950895BCD088F006
S11310F09F5790F0B92F9927B751A0F0D1F0660F00
S1131100771F881F991F1AF0BA95C9F712C0B1301A
S113111081F0C3D0B1E00895C0C0672F782F88272D
S1131120B85F39F0B93FCCF3869577956795B39559
S1131130D9F73EF490958095709561957F4F8F4FC8
S11311409F4F0895E89409C097FB3EF490958095CD
S1131150709561957F4F8F4F9F4F9923A9F0F92F79
S113116096E9BB279395F695879577956795B795F7
S1131170F111F8CFFAF4BB0F11F460FF1BC06F5FDD
S11311807F4F8F4F9F4F16C0882311F096E911C0EF
S1131190772321F09EE8872F762F05C0662371F010
S11311A096E8862F70E060E02AF09A95660F771F24
S11311B0881FDAF7880F9695879597F90895990F00
S11311C00008550FAA0BE0E8FEEF16161706E8070D
S11311D0F907C0F012161306E407F50798F0621B2E
S11311E0730B840B950B39F40A2661F0232B242B03
S11311F0252B21F408950A2609F4A140A6958FEF22
S1131200811D811D089597F99F6780E870E060E073
S113121008959FEF80EC089500240A94161617068B
S113122018060906089500240A94121613061406D3
S113123005060895092E0394000C11F4882352F036
S1131240BB0F40F4BF2B11F460FF04C06F5F7F4FEE
S11312508F4F9F4F089557FD9058440F551F59F0D5
S11312605F3F71F04795880F97FB991F61F09F3F8F
S113127079F087950895121613061406551FF2CFB8
S11312804695F1DF08C0161617061806991FF1CF08
S113129086957105610508940895E894BB2766272F
S11312A07727CB0197F908958ADF08F48FEF089523
S11312B00BD0C0CFB1DF28F0B6DF18F0952309F0CA
S11312C0A2CFA7CF1124EACFC6DFA0F3959FD1F315
S11312D0950F50E0551F629FF001729FBB27F00DE0
S11312E0B11D639FAA27F00DB11DAA1F649F662735
S11312F0B00DA11D661F829F2227B00DA11D621F84
S1131300739FB00DA11D621F839FA00D611D221F3D
S1131310749F3327A00D611D231F849F600D211D21
S1131320822F762F6A2F11249F5750408AF0E1F0C4
S113133088234AF0EE0FFF1FBB1F661F771F881F0D
S113134091505040A9F79E3F510570F05CCFA6CF55
S11313505F3FECF3983EDCF3869577956795B795F8
S1131360F795E7959F5FC1F7FE2B880F911D969522
S10D1370879597F90895F894FFCFCC
S111137AFFFFFFFFFFFFFFFFFFFFFFFFFF006E
S9030000FC
