:100000000C942A000C9447000C9447000C94470071
:100010000C9447000C9447000C9447000C94470044
:100020000C9447000C9447000C94D30E0C9447009A
:100030000C9447000C9447000C9447000C94470024
:100040000C9447000C9447000C9447000C94470014
:100050000C94470011241FBECFE5D8E0DEBFCDBF12
:1000600012E0A0E6B0E0ECE9F4E202C005900D92E7
:10007000AA33B107D9F712E0AAE3B2E001C01D929A
:10008000AE33B107E1F70E9433050C944C120C9487
:100090000000843409F471C0853448F4823499F145
:1000A000833408F04DC0813409F083C00FC082361C
:1000B00051F1833620F4813609F07BC007C08336C6
:1000C00009F43EC0843609F074C057C0413069F469
:1000D0002AB381E090E0AC0102C0440F551F6A953D
:1000E000E2F7BA01622B6ABB08952AB381E090E07F
:1000F000AC0102C0440F551F6A95E2F7BA01609542
:1001000062236ABB0895413069F427B381E090E02F
:10011000AC0102C0440F551F6A95E2F7BA01622B89
:1001200067BB089527B381E090E0AC0102C0440FA3
:10013000551F6A95E2F7BA016095622367BB08957F
:10014000413069F424B381E090E0AC0102C0440F77
:10015000551F6A95E2F7BA01622B64BB089524B378
:1001600081E090E0AC0102C0440F551F6A95E2F7B0
:10017000BA016095622364BB0895413069F421B3EC
:1001800081E090E0AC0102C0440F551F6A95E2F790
:10019000BA01622B61BB089521B381E090E0AC010C
:1001A00002C0440F551F6A95E2F7BA0160956223B9
:1001B00061BB0895843409F471C0853448F48234F5
:1001C00099F1833408F04DC0813409F083C00FC029
:1001D000823651F1833620F4813609F07BC007C0A6
:1001E000833609F43EC0843609F074C057C04130EC
:1001F00069F42BB381E090E0AC0102C0440F551FBD
:100200006A95E2F7BA01622B6BBB08952BB381E0CC
:1002100090E0AC0102C0440F551F6A95E2F7BA01A5
:10022000609562236BBB0895413069F428B381E087
:1002300090E0AC0102C0440F551F6A95E2F7BA0185
:10024000622B68BB089528B381E090E0AC0102C046
:10025000440F551F6A95E2F7BA016095622368BBA7
:100260000895413069F425B381E090E0AC0102C00B
:10027000440F551F6A95E2F7BA01622B65BB0895DA
:1002800025B381E090E0AC0102C0440F551F6A9590
:10029000E2F7BA016095622365BB0895413069F4C5
:1002A00022B381E090E0AC0102C0440F551F6A9573
:1002B000E2F7BA01622B62BB089522B381E090E0BD
:1002C000AC0102C0440F551F6A95E2F7BA01609570
:1002D000622362BB0895843409F43DC0853440F440
:1002E0008234F9F0833450F5813409F040C00CC0F9
:1002F0008236B9F0833618F48136C9F505C08336E5
:10030000E9F08436A1F527C02BB381E090E0AC0181
:1003100002C0440F551F6A95E2F7BA0162276BBB12
:10032000089528B381E090E0AC0102C0440F551F4E
:100330006A95E2F7BA01622768BB089525B381E0A8
:1003400090E0AC0102C0440F551F6A95E2F7BA0174
:10035000622765BB089522B381E090E0AC0102C042
:10036000440F551F6A95E2F7BA01622762BB0895F0
:10037000843409F451C0853440F4823439F1833433
:10038000C0F5813409F05AC00EC08236F9F08336C8
:1003900020F4813609F052C006C0833651F184360C
:1003A00009F04CC039C029B381E090E0062E02C0AC
:1003B000880F991F0A94E2F730E08223932302C04A
:1003C000969587956A95E2F7982F38C026B381E015
:1003D00090E0062E02C0880F991F0A94E2F730E0E1
:1003E0008223932302C0969587956A95E2F7982F0A
:1003F00025C023B381E090E0062E02C0880F991F2C
:100400000A94E2F730E08223932302C09695879501
:100410006A95E2F7982F12C020B381E090E0062E93
:1004200002C0880F991F0A94E2F730E082239323D9
:1004300002C0969587956A95E2F7982F892F0895BF
:100440008434D9F0853438F4823499F0833498F4C4
:100450008134A1F40CC0823661F0833618F4813601
:1004600069F405C0833639F0843641F406C06ABBAE
:10047000089567BB089564BB089561BB08958434F3
:10048000D9F0853438F4823499F0833498F4813487
:10049000A1F40CC0823661F0833618F4813669F419
:1004A00005C0833639F0843641F406C06BBB08952D
:1004B00068BB089565BB089562BB08958434D9F084
:1004C000853438F4823499F0833498F48134A1F47B
:1004D0000CC0823661F0833618F4813669F405C0A9
:1004E000833639F0843641F406C099B305C096B31B
:1004F00003C093B301C090B3892F0895843409F1E8
:10050000853438F48234A9F08334B8F48134E1F4CA
:100510000CC0823671F0833618F48136A9F405C018
:10052000833659F0843681F40CC08BB380958BBB35
:10053000089588B3809588BB089585B3809585BB61
:10054000089582B3809582BB0895843409F471C004
:10055000853448F4823499F1833408F04DC08134F5
:1005600009F083C00FC0823651F1833620F4813602
:1005700009F07BC007C0833609F43EC0843609F019
:1005800074C057C0413069F42BB381E090E0AC01F6
:1005900002C0440F551F6A95E2F7BA01622B6BBB8C
:1005A00008952BB381E090E0AC0102C0440F551FC9
:1005B0006A95E2F7BA01609562236BBB08954130FA
:1005C00069F428B381E090E0AC0102C0440F551FEC
:1005D0006A95E2F7BA01622B68BB089528B381E0FF
:1005E00090E0AC0102C0440F551F6A95E2F7BA01D2
:1005F0006095622368BB0895413069F425B381E0BA
:1006000090E0AC0102C0440F551F6A95E2F7BA01B1
:10061000622B65BB089525B381E090E0AC0102C078
:10062000440F551F6A95E2F7BA016095622365BBD6
:100630000895413069F422B381E090E0AC0102C03A
:10064000440F551F6A95E2F7BA01622B62BB089509
:1006500022B381E090E0AC0102C0440F551F6A95BF
:10066000E2F7BA016095622362BB08950F931F936E
:10067000CF93C82F062F462F417060E00E94DA000A
:1006800010E0A80142705070569547958C2F61E09C
:100690000E94DA00A801447050705695479556950F
:1006A00047958C2F62E00E94DA0008701070A80154
:1006B0005695479556954795569547958C2F63E0E7
:1006C0000E94DA00CF911F910F9108950F931F930D
:1006D000CF93C82F062F462F417064E00E94DA00A6
:1006E00010E0A80142705070569547958C2F65E038
:1006F0000E94DA00A80144705070569547955695AF
:1007000047958C2F66E00E94DA0008701070A801EF
:100710005695479556954795569547958C2F67E082
:100720000E94DA00CF911F910F9108959FBB8EBB5D
:100730006DBBE29AE19AE199FECF08959FBB8EBB13
:10074000E09A8DB3089584E460E041E00E9449009E
:1007500084E461E041E00E94490084E462E041E019
:100760000E94490084E463E041E00E94490084E47F
:1007700064E040E00E94490084E465E040E00E94BB
:10078000490084E466E040E00E94490084E467E0B8
:1007900040E00E94490084E464E041E00E94A50238
:1007A00084E465E041E00E94A50284E466E041E063
:1007B0000E94A50284E467E041E00E94A50208953A
:1007C0000F931F93CF93DF93CDB7DEB760970FB62C
:1007D000F894DEBF0FBECDBFDE011196E0E6F0E07B
:1007E00080E101900D928150E1F700E084E460E047
:1007F00041E00E94DA0084E461E041E00E94DA0016
:1008000084E462E041E00E94DA0084E463E041E0D5
:100810000E94DA0084E4602F40E00E94DA0010E0D9
:10082000612F6C5F84E40E94B801882361F4E02F9B
:10083000F0E0EE0FFF1FEE0FFF1FE10FF11DEC0FB9
:10084000FD1F818104C01F5F143051F70BC06096FB
:100850000FB6F894DEBF0FBECDBFDF91CF911F91D1
:100860000F9108950F5F043009F68FEFF0CFCF930B
:10087000DF93D82FC62F41E00E94DA008FE99FE076
:100880000197F1F700C000008D2F6C2F40E00E940F
:10089000DA008FE99FE00197F1F700C00000DF91D7
:1008A000CF910895CF93DF93D82FC62F62956F70A5
:1008B0000E94660382E461E041E00E94DA0082E483
:1008C00060E00E9437048D2F6C2F0E94660382E443
:1008D00060E00E943704DF91CF910895CF93DF93BA
:1008E000D82FC62F62956F700E94660382E461E084
:1008F00040E00E94DA0082E460E00E9437048D2F1D
:100900006C2F0E94660382E460E00E9437048FEC43
:1009100097E00197F1F700C00000DF91CF910895B3
:100920008FEF91EEA4E081509040A040E1F700C02D
:10093000000081E464E041E00E94490081E465E058
:1009400041E00E94490081E466E041E00E944900E4
:1009500081E467E041E00E94490082E460E041E018
:100960000E94490082E461E041E00E94490081E484
:1009700062E00E946E04AFE1BEE41197F1F700C09F
:10098000000081E468E20E946E048FEC97E001971A
:10099000F1F700C0000081E46EE00E946E04AFEC4D
:1009A000B7E01197F1F700C0000081E461E00E9418
:1009B0006E048FE19EE40197F1F700C0000081E42E
:1009C00066E00E946E04AFECB7E01197F1F700C04B
:1009D0000000089581E461E00E946E040895282FCC
:1009E0002150223070F4613170F4662371F081304F
:1009F00019F4962F91580AC0823041F4962F9154E1
:100A000005C090E803C090E801C090E881E4692F38
:100A10000E946E048FEC97E00197F1F700C0000090
:100A20000895CF93DF93EC016881662339F0219616
:100A300081E40E94520469916623D1F7DF91CF913E
:100A4000089541E00E944900089541E00E94DA00C3
:100A5000089540E00E94DA0008950E946B01089515
:100A60000E94B8010895CF93DF9300D000D0CDB796
:100A7000DEB70E9490040E94A3030E94370F81E416
:100A800061E00E94210581E462E00E94210581E489
:100A900063E00E94210583E080933D0280E790E0BF
:100AA0000E94110582E061E00E94EF0481E890E07D
:100AB0000E9411052FEF39E648E1215030404040B7
:100AC000E1F700C000000E94EA040CE211E00F2EE2
:100AD000F8E2EF2EF1E0FF2EF02D902E812E7E2CED
:100AE0006F2C502E412E3E2C2F2C80E090E00E9447
:100AF0009E038F3F11F40C94A80E81E090E00E94B9
:100B00009E038F3F09F0BFC08FE890E00E9411055F
:100B100082E061E00E94EF0489E990E00E94110503
:100B20008FEF99E6A8E181509040A040E1F700C026
:100B300000000E94EA0486EA90E00E94110582E02B
:100B400061E00E94EF0480EB90E00E94110582E0DA
:100B500066E00E94EF0410923C02DD24DA940E94C9
:100B6000E003682F809330028F3FC9F320913C024D
:100B700030E0C90180509F4F0E94960381E460914C
:100B800030020E9452042FEF31EE44E021503040F9
:100B90004040E1F700C0000060913C026A5F82E0E3
:100BA0000E94EF0481E46AE20E945204D092300273
:100BB00080913C028F5F80933C02843080F280E021
:100BC00090E060E00E9496038FEF94E3ACE08150E8
:100BD0009040A040E1F700C000000E94EA0486EBCC
:100BE00090E00E94110582E061E00E94EF0480EB3A
:100BF00090E00E94110582E066E00E94EF041092EE
:100C00003C02DD24DA940E94E003682F80933002D6
:100C10008F3FC9F320913C0230E0C9018C5F9E4FA9
:100C20000E94960381E4609130020E9452042FEFEB
:100C300031EE44E0215030404040E1F700C0000078
:100C400060913C026A5F82E00E94EF0481E46AE204
:100C50000E945204D092300280913C028F5F8093B8
:100C60003C02843080F281E090E060E00E949603D4
:100C70008FEF94E3ACE081509040A040E1F700C0DA
:100C800000000E94EA0480E090E00E949E03882316
:100C900009F02BCF81E090E00E949E03882309F0A9
:100CA00024CF80912902813009F01FCF80EC90E0A1
:100CB0000E94110582E061E00E94EF048DEC90E05B
:100CC0000E9411050E94E00380932E022FEF30E76F
:100CD00042E0215030404040E1F700C000008F3F2B
:100CE00089F30E94560F80912E02803309F0F4C4DC
:100CF000E3C40E94EA04C5010E94110582E061E09C
:100D00000E94EF0486EE90E00E94110582E06AE006
:100D10000E94EF0410923C02C0903C02DD240E942D
:100D2000E003F601EB5CFD4F80838FEF90E7A2E0DC
:100D300081509040A040E1F700C00000E0913C02EB
:100D4000F0E0EB5CFD4F60816F3F31F381E40E9486
:100D5000520460913C02665F82E00E94EF042FE73C
:100D600039EA43E0215030404040E1F700C0000044
:100D700081E46AE20E9452048FEF90E7A2E0815082
:100D80009040A040E1F700C0000080913C028F5FDE
:100D900080933C02843008F4BFCF80E091E00E9451
:100DA0009E0390913502891709F0F6C381E091E026
:100DB0000E949E0390913602891709F0EDC382E0EC
:100DC00091E00E949E0390913702891709F0E4C3D5
:100DD00083E091E00E949E0390913802891709F008
:100DE000DBC3109229020E94EA0480EF90E00E9487
:100DF00011050E94800F81E461E00E9425052FEF1C
:100E000039E648E1215030404040E1F700C00000A1
:100E100040E351E049835A830E94EA0480E091E074
:100E20000E94110582E061E00E94EF0480E191E000
:100E30000E9411058FEF80932D020E94E0038093A2
:100E40002D028F3FD1F3823309F486C0833320F41F
:100E5000813309F03BC407C0833309F4F6C08433FF
:100E600009F034C46BC181E00E94560F0E94EA046D
:100E70008FE191E00E94110564C08FEF0E94560F30
:100E800080932C02813041F469E00E94EF04872DA9
:100E9000962D0E9411050AC0882341F481E069E083
:100EA0000E94EF04892D982D0E94110582E061E0D7
:100EB0000E94EF0480E391E00E9411050E94E0038C
:100EC00080932B028F3FD1F32FEF30E742E0215088
:100ED00030404040E1F700C00000813361F481E020
:100EE0000E94560F81E069E00E94EF04872D962D45
:100EF0000E94110526C0823361F480E00E94560FE3
:100F000081E069E00E94EF04892D982D0E9411056F
:100F100018C0803331F483E00E94560F0E94EA0427
:100F20007BCF0E94EA0481E491E00E9411058FEFDB
:100F300099E6A8E181509040A040E1F700C0000090
:100F40006BCF80912B02803309F097CF80912902DB
:100F5000882309F492CFBAC382E00E94560F0E9400
:100F6000EA048EE491E00E94110564C08FEF0E94B4
:100F7000560F80932C02813041F469E00E94EF0407
:100F8000872D962D0E9411050AC0882341F481E027
:100F900069E00E94EF04892D982D0E94110582E0DE
:100FA00061E00E94EF0480E391E00E9411050E943D
:100FB000E00380932B028F3FD1F32FEF30E742E025
:100FC000215030404040E1F700C00000813361F41F
:100FD00081E00E94560F81E069E00E94EF04872DB6
:100FE000962D0E94110526C0823361F480E00E9494
:100FF000560F81E069E00E94EF04892D982D0E9430
:10100000110518C0803331F483E00E94560F0E940E
:10101000EA0402CF0E94EA0481E491E00E941105F3
:101020008FEF99E6A8E181509040A040E1F700C021
:101030000000F2CE80912B02803309F097CF80918F
:101040002902882309F492CF41C383E00E94560FFE
:101050000E94EA0487E591E00E94110564C08FEFC9
:101060000E94560F80932C02813041F469E00E9467
:10107000EF04872D962D0E9411050AC0882341F4A4
:1010800081E069E00E94EF04892D982D0E941105EE
:1010900082E061E00E94EF0480E391E00E9411058C
:1010A0000E94E00380932B028F3FD1F32FEF30E7B4
:1010B00042E0215030404040E1F700C00000813361
:1010C00061F481E00E94560F81E069E00E94EF0424
:1010D000872D962D0E94110526C0823361F480E091
:1010E0000E94560F81E069E00E94EF04892D982D3F
:1010F0000E94110518C0803331F483E00E94560F1E
:101100000E94EA0489CE0E94EA0481E491E00E94F0
:1011100011058FEF99E6A8E181509040A040E1F7DA
:1011200000C0000079CE80912B02803309F097CF68
:1011300080912902882309F492CFC8C284E00E94DA
:10114000560F0E94EA040F2EF1E4CF2EF1E0DF2EBD
:10115000F02D80E691E00E94110582E061E00E949E
:10116000EF048EE691E00E9411059FEF90932B0211
:101170000E94E00380932B028F3FD1F3813369F00B
:10118000823320F4803309F0F7C1F0C1823309F4CF
:101190007BC0833309F0F0C1EEC081E00E94560F9E
:1011A0000E94EA048FE791E00E94110580912B02D2
:1011B000882309F463C08FEF0E94560F80932C029E
:1011C000813041F469E00E94EF04832D922D0E944A
:1011D00011050AC0882341F481E069E00E94EF0410
:1011E000852D942D0E94110582E061E00E94EF049C
:1011F00080E391E00E9411050E94E00380932B029E
:101200008F3FD1F32FEF30E742E021503040404094
:10121000E1F700C00000813361F481E00E94560FC5
:1012200081E069E00E94EF04832D922D0E94110558
:10123000E3CF823361F480E00E94560F81E069E0E1
:101240000E94EF04852D942D0E941105D5CF803387
:1012500031F483E00E94560F0E94EA047ACF0E9484
:10126000EA04C6010E9411058FEF99E6A8E18150BA
:101270009040A040E1F700C000006BCF80912902B0
:10128000882309F498CF22C282E00E94560F0E9460
:10129000EA0488E891E00E94110580912B028823DE
:1012A00009F463C08FEF0E94560F80932C028130A7
:1012B00041F467E00E94EF04832D922D0E941105F6
:1012C0000AC0882341F481E067E00E94EF04852D85
:1012D000942D0E94110582E061E00E94EF0480E3FA
:1012E00091E00E9411050E94E00380932B028F3F42
:1012F000D1F32FEF30E742E0215030404040E1F79A
:1013000000C00000813361F481E00E94560F81E04B
:1013100067E00E94EF04832D922D0E941105E3CF18
:10132000823361F480E00E94560F81E067E00E9402
:10133000EF04852D942D0E941105D5CF803331F413
:1013400083E00E94560F0E94EA0403CF0E94EA0441
:10135000C6010E9411058FEF99E6A8E181509040E7
:10136000A040E1F700C00000F4CE8091290288235C
:1013700009F498CFABC183E00E94560F0E94EA04A3
:10138000DD24DA94D0922A02D0922B028FE891E0E9
:101390000E94110582E061E00E94EF048AE991E079
:1013A0000E9411050E94E00380932A028F3FD1F32F
:1013B0002FEF31EE44E0215030404040E1F700C0D3
:1013C0000000813321F0823309F080C158C081E0F0
:1013D0000E94560F0E94EA048BEA91E00E941105D8
:1013E00081E46FED0E94520481E463E40E945204A0
:1013F0000E94E003809328028F3FD1F38FEF91EE9C
:10140000A4E081509040A040E1F700C0000081E0DE
:1014100066E00E94EF0481E4609128020E94520479
:101420000E94E003809327028F3FD1F32FEF31EE2C
:1014300044E0215030404040E1F700C0000081E42A
:10144000609127020E94520480912702805190915E
:101450002802990F292F220F220F920F890F8093B4
:1014600026020E94560F8FEF94E3ACE0815090402B
:10147000A040E1F700C000000E94EA0483CF109270
:10148000290282E00E94630F0E94EA048B819C8102
:101490000E94110582E061E00E94EF0489819A8137
:1014A0000E941105D0922B020E94E00380932B0230
:1014B0008F3FD1F32FEF31EE44E0215030404040D8
:1014C000E1F700C000008133D1F481E00E94560FA3
:1014D00082E00E94560F81E06CE00E94EF04832DB1
:1014E000922D0E9411050E94EA048FEF94E3ACE074
:1014F00081509040A040E1F700C00000C7CF823388
:10150000D1F480E00E94560F80E00E94560F81E0E7
:101510006CE00E94EF04852D942D0E9411050E941D
:10152000EA042FEF34E34CE0215030404040E1F733
:1015300000C00000ABCF803349F483E00E94560F17
:1015400083E00E94560F0E94EA041CCF0E94EA0426
:1015500081E491E00E9411058FEF99E6A8E18150A6
:101560009040A040E1F700C0000056CC0E94EA0481
:1015700080E00E94560F50CC0E94EA0481E491E082
:101580000E9411052FEF39E648E1215030404040DC
:10159000E1F700C0000036C10E94EA048FEB91E041
:1015A0000E9411058FEF94E3ACE081509040A04081
:1015B000E1F700C0000080913D02882309F18150CD
:1015C00080933D020E94EA0481ED91E00E941105A2
:1015D00081E06CE00E94EF0460913D02605D81E477
:1015E0000E9452042FEF39E648E12150304040403C
:1015F000E1F700C0000080913D02882309F066C039
:101600000E94EA048DED91E00E94110588E091E0CE
:1016100061E00E9496038FEF9EE9A4E28150904022
:10162000A040E1F700C0000088E091E00E949E0326
:10163000813021F481E463E00E9425050E94EA04E0
:101640008DEE91E00E9411050F2EFAE0CF2EF02DC5
:101650000F2EFAE0DF2EF02D81E066E00E94EF040D
:101660008C2D6D2D0E9440129983682F605D81E45E
:101670000E9452046981605D81E40E9452042FEF50
:1016800039E648E1215030404040E1F700C0000019
:10169000CA9411F788E091E06FEF0E94960388E00A
:1016A00091E00E949E038F3F21F481E463E00E9459
:1016B00029050E94EA040AC00F2EFAEDAF2EF0E0D1
:1016C000BF2EF02D43EB51E04B835C8380913D02B4
:1016D000882309F00ECB09CA813309F006CA83E0DA
:1016E00080933D020E94EA0489EF91E00E94110577
:1016F00082E061E00E94EF0486EE90E00E94110516
:1017000082E06AE00E94EF0410923C02C0903C022A
:10171000DD240E94E003F601EF5CFD4F80832FEF94
:1017200030E742E0215030404040E1F700C0000087
:10173000E0913C02F0E0EF5CFD4F60816F3F31F3E0
:1017400081E40E94520460913C02665F82E00E9444
:10175000EF048FE799EAA3E081509040A040E1F7C1
:1017600000C0000081E46AE20E9452042FEF30E7DB
:1017700042E0215030404040E1F700C0000080913D
:101780003C028F5F80933C02843008F4BFCF84E03A
:1017900091E00E949E0390913102891709F046C2A0
:1017A00085E091E00E949E0390913202891709F032
:1017B0003DC286E091E00E949E039091330289171A
:1017C00009F034C287E091E00E949E0390913402B8
:1017D000891709F02BC2109229020E94EA0480EFB7
:1017E00090E00E9411050E94800F81E462E00E9457
:1017F00025058FEF99E6A8E181509040A040E1F7E0
:1018000000C000000F2EF0E0AF2EF1E0BF2EF02D53
:101810000F2EF0E3CF2EF1E0DF2EF02D0E94EA0430
:10182000C5010E94110582E061E00E94EF0485E09D
:1018300092E00E9411058FEF80932D020E94E00339
:1018400080932D028F3FD1F3823309F481C083331B
:1018500020F4813309F0DAC107C0833309F4ECC006
:10186000843309F0D3C15DC181E00E94560F0E940C
:10187000EA048FE191E00E9411055FC08FEF0E94A2
:10188000560F80932C02813039F469E00E94EF04F6
:10189000C7010E94110509C0882339F481E069E07D
:1018A0000E94EF04C8010E94110582E061E00E94DD
:1018B000EF04C6010E9411050E94E00380932B02F1
:1018C0008F3FD1F32FEF30E742E0215030404040CE
:1018D000E1F700C00000813359F481E00E94560F07
:1018E00081E069E00E94EF04C7010E94110525C054
:1018F000823359F480E00E94560F81E069E00E9433
:10190000EF04C8010E94110518C0803331F483E050
:101910000E94560F0E94EA0481CF0E94EA0481E4EB
:1019200091E00E9411058FEF99E6A8E18150904067
:10193000A040E1F700C0000071CF80912B028033FE
:1019400009F09CCF80912902882309F497CFCDC854
:1019500082E00E94560F0E94EA048EE491E00E9409
:1019600011055FC08FEF0E94560F80932C028130CB
:1019700039F469E00E94EF04C7010E94110509C013
:10198000882339F481E069E00E94EF04C8010E94D5
:10199000110582E061E00E94EF04C6010E9411057A
:1019A0000E94E00380932B028F3FD1F32FEF30E7AB
:1019B00042E0215030404040E1F700C00000813358
:1019C00059F481E00E94560F81E069E00E94EF0423
:1019D000C7010E94110525C0823359F480E00E949E
:1019E000560F81E069E00E94EF04C8010E941105D2
:1019F00018C0803331F483E00E94560F0E94EA043D
:101A00000DCF0E94EA0481E491E00E9411058FEF5E
:101A100099E6A8E181509040A040E1F700C00000A5
:101A2000FDCE80912B02882309F09CCF8091290262
:101A3000882309F497CF59C883E00E94560F0E946B
:101A4000EA0487E591E00E9411055FC08FEF0E94D4
:101A5000560F80932C02813039F469E00E94EF0424
:101A6000C7010E94110509C0882339F481E069E0AB
:101A70000E94EF04C8010E94110582E061E00E940B
:101A8000EF04C6010E9411050E94E00380932B021F
:101A90008F3FD1F32FEF30E742E0215030404040FC
:101AA000E1F700C00000813359F481E00E94560F35
:101AB00081E069E00E94EF04C7010E94110525C082
:101AC000823359F480E00E94560F81E069E00E9461
:101AD000EF04C8010E94110518C0803331F483E07F
:101AE0000E94560F0E94EA0499CE0E94EA0481E403
:101AF00091E00E9411058FEF99E6A8E18150904096
:101B0000A040E1F700C0000089CE80912B0288231D
:101B100009F09CCF80912902882309F497CF0C9477
:101B2000750584E00E94560F0E94EA048FE791E059
:101B30000E9411055FC08FEF0E94560F80932C0208
:101B4000813039F469E00E94EF04C7010E94110559
:101B500009C0882339F481E069E00E94EF04C801DC
:101B60000E94110582E061E00E94EF04C6010E941C
:101B700011050E94E00380932B028F3FD1F32FEFDA
:101B800030E742E0215030404040E1F700C0000023
:101B9000813359F481E00E94560F81E069E00E9490
:101BA000EF04C7010E94110525C0823359F480E07B
:101BB0000E94560F81E069E00E94EF04C8010E9474
:101BC000110518C0803331F483E00E94560F0E9443
:101BD000EA0424CE0E94EA0481E491E00E94110507
:101BE0008FEF99E6A8E181509040A040E1F700C056
:101BF000000014CE80912B02882309F09CCF8091A5
:101C00002902882309F497CF0C9475050E94EA04F1
:101C100081E491E00E9411052FEF39E648E121505F
:101C200030404040E1F700C00000F8CD0E94EA04D7
:101C30008FEB91E00E9411058FEF94E3ACE08150AF
:101C40009040A040E1F700C0000080913D02882351
:101C500011F1815080933D020E94EA0481ED91E0F0
:101C60000E94110581E06CE00E94EF0460913D024A
:101C7000605D81E40E9452042FEF39E648E1215073
:101C800030404040E1F700C0000080913D028823D1
:101C900011F00C9475050E94EA048DED91E00E940C
:101CA000110588E091E061E00E9496038FEF9EE9C4
:101CB000A4E281509040A040E1F700C0000088E01D
:101CC00091E00E949E03813021F481E463E00E9450
:101CD00025050E94EA048DEE91E00E9411050F2E69
:101CE000FAE0CF2EF02D0F2EFAE0DF2EF02D81E05E
:101CF00066E00E94EF048C2D6D2D0E944012A92EEB
:101D0000682F605D81E40E9452046A2D605D81E469
:101D10000E9452042FEF39E648E121503040404004
:101D2000E1F700C00000CA9411F788E091E06FEF7E
:101D30000E94960388E091E00E949E038F3F21F469
:101D400081E463E00E9429050E94EA040C94750571
:101D50008FE890E00E94110582E061E00E94EF04AC
:101D600089E990E00E9411058FEF99E6A8E1815082
:101D70009040A040E1F700C000000E94EA0486EA1B
:101D800090E00E94110582E061E00E94EF0480EB88
:101D900090E00E94110582E066E00E94EF0410923C
:101DA0003C020C94AD051F920F920FB60F921124B6
:101DB0002F933F934F935F936F937F938F939F9353
:101DC000AF93BF93EF93FF9380913A0290913B02C0
:101DD000019690933B0280933A0280913A0290914F
:101DE0003B022EE48032920789F50E94EA0485E1E5
:101DF00092E00E94110581E461E00E94290581E4DE
:101E000062E00E9429058FEF99E6A8E18150904099
:101E1000A040E1F700C0000010923B0210923A028D
:101E20008FEF8093300280932F0280932E021092C6
:101E30003C0280932D0280932C0280932B020E94FF
:101E4000900F81E0809329020E943305FF91EF916A
:101E5000BF91AF919F918F917F916F915F914F91C2
:101E60003F912F910F900FBE0F901F90189582E415
:101E700064E041E00E94490082E465E041E00E94A4
:101E8000490082E467E041E00E9449006C9A689A48
:101E90006E9A82E464E041E00E94DA0008956E9A4E
:101EA00082E466E041E00E9449000895CF93C82F84
:101EB00082E464E040E00E94DA00CFB9779BFECF75
:101EC0008FB1CF9108958FB9779BFECF8FB10895D1
:101ED000CF93DF93EC018881882379F021960E94CB
:101EE000560F8FEF92E5A7E081509040A040E1F7B8
:101EF00000C000008991882391F7DF91CF91089568
:101F000083B7886083BF83B7846083BF83B78160F2
:101F100083BF8EE48CBF789489B7826089BF0895AF
:101F200083B78B7F83BF83B78E7F83BF0895BB9AB0
:101F300083B7886083BF80E48CBF83B7846083BF2E
:101F400083B7816083BF83B7806183BF0895BB9AE5
:101F500083B7806483BF83B7886083BF80E48CBF0E
:101F600083B7816083BF83B7846083BF83B78F7E6D
:101F700083BF83B7806283BF0895BB9A83B78064B1
:101F800083BF80E48CBF83B7816083BF83B78460E5
:101F900083BF83B78F7E83BF83B7806283BF08957B
:101FA00085B5886085BD85B5846085BD85B5816052
:101FB00085BD85B5826085BD8EE483BD789489B783
:101FC000806889BF08958D9A2FB522602FBD2EB5E8
:101FD00028602EBD2EB520612EBD2FE13EE437BD19
:101FE00026BD20E030E04AE754E40E94DD110E9463
:101FF0003811DC01CB019BBD8ABD8EB581608EBDE1
:102000008FB580688FBD0895CF92DF92EF92FF92D7
:102010006B017C018D9A8FB582608FBD8EB5886013
:102020008EBD8EB580618EBD8FE19EE497BD86BD6D
:10203000C701B60120E030E0A9010E94D911882330
:10204000CCF0C701B60120E030E044EB52E40E943E
:10205000CC1018167CF0C701B60120E030E044E354
:1020600053E40E94D01020E030E040EC5FE30E9497
:1020700068100EC0C701B60120E030E044E353E42D
:102080000E94D01020E030E040EC5FE30E94681036
:10209000382F292F862F972FA32FB22FBC01CD01C8
:1020A00020E030E04AE754E40E94DD110E9438113C
:1020B000DC01CB019BBD8ABD8EB581608EBD8FB525
:1020C00080688FBDFF90EF90DF90CF9008955058BB
:1020D000BB27AA270ED033C124D130F029D120F05C
:1020E00031F49F3F11F41EF419C10EF4E095E7FBA3
:1020F0000FC1E92F35D180F3BA1762077307840740
:10210000950718F071F49EF54DC10EF4E0950B2E75
:10211000BA2FA02D0B01B90190010C01CA01A00139
:102120001124FF27591B99F0593F50F4503E68F194
:102130001A16F040A22F232F342F4427585FF3CFD5
:10214000469537952795A795F0405395C9F77EF4A6
:102150001F16BA0B620B730B840BBAF09150A1F0EF
:10216000FF0FBB1F661F771F881FC2F70EC0BA0F75
:10217000621F731F841F48F4879577956795B795FD
:10218000F7959E3F08F0B3CF9395880F08F09927F5
:10219000EE0F97958795089597D008F481E00895FC
:1021A0000CD0CDC0C5D040F0BCD030F021F45F3FA2
:1021B00019F0AEC05111F7C0B1C0D2D098F3992335
:1021C000C9F35523B1F3951B550BBB27AA276217FB
:1021D0007307840738F09F5F5F4F220F331F441F40
:1021E000AA1FA9F333D00E2E3AF0E0E830D0915078
:1021F0005040E695001CCAF729D0FE2F27D0660F65
:10220000771F881FBB1F261737074807AB07B0E8A3
:1022100009F0BB0B802DBF01FF2793585F4F2AF0B9
:102220009E3F510568F074C0BEC05F3FECF3983E1E
:10223000DCF3869577956795B795F7959F5FC9F716
:10224000880F911D9695879597F90895E1E0660F9F
:10225000771F881FBB1F621773078407BA0720F018
:10226000621B730B840BBA0BEE1F88F7E095089581
:102270007FD088F09F5790F0B92F9927B751A0F0E1
:10228000D1F0660F771F881F991F1AF0BA95C9F70A
:1022900012C0B13081F086D0B1E0089583C0672FBD
:1022A000782F8827B85F39F0B93FCCF386957795BA
:1022B0006795B395D9F73EF49095809570956195A3
:1022C0007F4F8F4F9F4F0895990F0008550FAA0B0E
:1022D000E0E8FEEF16161706E807F907C0F0121639
:1022E0001306E407F50798F0621B730B840B950B3C
:1022F00039F40A2661F0232B242B252B21F4089591
:102300000A2609F4A140A6958FEF811D811D08952D
:1023100097F99F6780E870E060E008959FEF80EC98
:10232000089500240A94161617061806090608953B
:1023300000240A9412161306140605060895092EA1
:102340000394000C11F4882352F0BB0F40F4BF2B10
:1023500011F460FF04C06F5F7F4F8F4F9F4F089550
:1023600057FD9058440F551F59F05F3F71F0479546
:10237000880F97FB991F61F09F3F79F0879508952B
:10238000121613061406551FF2CF4695F1DF08C04A
:10239000161617061806991FF1CF86957105610567
:1023A00008940895E894BB2766277727CB0197F90F
:1023B00008958ADF08F48FEF08950BD0C0CFB1DF06
:1023C00028F0B6DF18F0952309F0A2CFA7CF11248B
:1023D000EACFC6DFA0F3959FD1F3950F50E0551FCC
:1023E000629FF001729FBB27F00DB11D639FAA276A
:1023F000F00DB11DAA1F649F6627B00DA11D661FB9
:10240000829F2227B00DA11D621F739FB00DA11DD9
:10241000621F839FA00D611D221F749F3327A00D93
:10242000611D231F849F600D211D822F762F6A2F2F
:1024300011249F5750408AF0E1F088234AF0EE0FB4
:10244000FF1FBB1F661F771F881F91505040A9F7C1
:102450009E3F510570F05CCFA6CF5F3FECF3983EF6
:10246000DCF3869577956795B795F795E7959F5F28
:10247000C1F7FE2B880F911D9695879597F90895C2
:10248000991B79E004C0991F961708F0961B881FC6
:0C2490007A95C9F780950895F894FFCF65
:10249C003738392F3435362A3132332D41303D2BF4
:1024AC0057656C636F6D6520546F3A536D61727430
:1024BC0000486F6D652053797374656D2121004C54
:1024CC006F67696E20466F72004669727374205490
:1024DC00696D652121005365742041646D696E003E
:1024EC00506173733A0053657420477565737400BB
:1024FC0041646D696E204D6F64653A3000477565B7
:10250C007374204D6F64653A3100436865636B20CA
:10251C0041646D696E0050617373776F72643A0039
:10252C0052696768742050617373776F726421000D
:10253C00312D524F4F4D3120322D524F4F4D3200D5
:10254C00332D524F4F4D3320342D4D4F52450052A9
:10255C004F4F4D3120533A004F4E20004F4646000E
:10256C00312D4F4E20322D4F464620302D524554A2
:10257C000057726F6E67204F7074696F6E00524F08
:10258C004F4D3220533A00524F4F4D3320533A00A7
:10259C00312D524F4F4D342020322D545600332DB7
:1025AC0041697220436F6E6420302D5245540052A5
:1025BC004F4F4D3420533A0054562020533A00319B
:1025CC002D5365742054656D7000322D436F6E74FD
:1025DC00726F6C2020302D5245540054656D703A4A
:1025EC002D2D0041697220436F6E6420533A0057C1
:1025FC00726F6E672050617373776F726421212143
:10260C00005472696573204C6566743A00594F55D5
:10261C002041524520424C4F434B45440057616981
:10262C00742020202053656300436865636B20474A
:10263C007565737400332D524F4F4D3320342D522A
:10264C004F4F4D340053657373696F6E2054696D31
:10265C0065204F757400FFFFFF01FFFFFFFFFFFFB9
:0A266C00FFFFFFFFFFFFFFFFFF006D
:00000001FF
